:020000040800F2
:1000000000000320251C0008F51B0008F71B000852
:10001000F91B0008FB1B0008FD1B00080000000086
:10002000000000000000000000000000FF1B0008AE
:10003000011C000800000000031C0008051C00084B
:10004000751C0008751C0008751C0008751C00084C
:10005000751C0008751C0008751C0008751C00083C
:10006000751C0008751C0008751C0008751C00082C
:10007000751C0008751C0008751C0008751C00081C
:10008000751C0008751C0008751C0008751C00080C
:10009000751C0008751C0008751C0008751C0008FC
:1000A000751C0008751C0008751C0008751C0008EC
:1000B000751C0008751C0008751C0008751C0008DC
:1000C000751C0008751C0008751C0008751C0008CC
:1000D000751C0008751C0008751C0008751C0008BC
:1000E000751C0008751C0008751C0008751C0008AC
:1000F000751C0008751C0008751C0008751C00089C
:10010000751C0008751C0008751C0008751C00088B
:10011000751C0008751C0008751C0008751C00087B
:10012000751C0008751C0008751C0008751C00086B
:10013000751C0008751C0008751C0008751C00085B
:10014000751C0008751C0008751C0008751C00084B
:10015000751C0008751C0008751C0008751C00083B
:10016000751C0008751C0008751C0008751C00082B
:10017000751C0008751C0008751C000800000000B4
:10018000751C0008751C0008751C0008751C00080B
:10019000751C0008751C0008751C0008751C0008FB
:0C01A000751C0008751C0008751C000888
:1001AC0010B5054C237833B9044B13B10448AFF3A5
:1001BC0000800123237010BD1000002000000000FF
:1001CC00D01C000808B5034B1BB103490348AFF31F
:1001DC00008008BD0000000014000020D01C0008A6
:1001EC0053B94AB9002908BF00281CBF4FF0FF3192
:1001FC004FF0FF3000F07AB9ADF1080C6DE904CE88
:10020C0000F006F8DDF804E0DDE9022304B07047E5
:10021C002DE9F0478C460D460446089E002B51D123
:10022C008A4217466DD9B2FA82FEBEF1000F0BD08E
:10023C00CEF1200C01FA0EF520FA0CFC02FA0EF7A6
:10024C004CEA050C00FA0EF44FEA174A250CBCFBDD
:10025C00FAF81FFA87F90AFB18CC45EA0C4508FB9B
:10026C0009F3AB420AD9ED1908F1FF3280F0238172
:10027C00AB4240F22081A8F102083D44ED1AA4B231
:10028C00B5FBFAF00AFB105544EA054400FB09F9EA
:10029C00A14509D9E41900F1FF3380F00A81A14589
:1002AC0040F2078102383C44A4EB090440EA0840C0
:1002BC000021002E61D024FA0EF400233460736008
:1002CC00BDE8F0878B4207D9002E54D0002186E878
:1002DC0021000846BDE8F087B3FA83F1002940F00D
:1002EC008E80AB4202D3824200F2FA80841A65EB14
:1002FC0003050120AC46002E3FD086E81010BDE867
:10030C00F08712B90127B7FBF2F7B7FA87FEBEF1F7
:10031C00000F34D1EB1B3A0C1FFA87FC0121B3FB05
:10032C00F2F8250C02FB183345EA03450CFB08F3E5
:10033C00AB4207D9ED1908F1FF3002D2AB4200F203
:10034C00D1808046ED1AA3B2B5FBF2F002FB10553A
:10035C0043EA05440CFB00FCA44507D9E41900F161
:10036C00FF3302D2A44500F2B8801846A4EB0C046B
:10037C0040EA08409DE731463046BDE8F087CEF1B3
:10038C00200405FA0EF307FA0EF720FA04F83A0CDB
:10039C0025FA04F448EA0308B4FBF2F14FEA1845D5
:1003AC0002FB11441FFA87FC45EA044501FB0CF3E0
:1003BC00AB4200FA0EF409D9ED1901F1FF3080F0CF
:1003CC008A80AB4240F2878002393D44EB1A1FFA17
:1003DC0088F5B3FBF2F002FB103345EA034500FB52
:1003EC000CF3AB4207D9ED1900F1FF386FD2AB42D9
:1003FC006DD902383D44EB1A40EA01418FE7C1F157
:10040C00200722FA07F88B4005FA01F448EA0303A7
:10041C0020FA07FE4FEA134CFD404EEA040EB5FBE2
:10042C00FCF94FEA1E440CFB19551FFA83F844EAF9
:10043C00054509FB08F4AC4202FA01F200FA01FA94
:10044C0008D9ED1809F1FF3043D2AC4241D9A9F1DA
:10045C0002091D442D1B1FFA8EFEB5FBFCF00CFB94
:10046C0010554EEA054400FB08F8A04507D9E418DE
:10047C0000F1FF3529D2A04527D902381C4440EAA7
:10048C000940A4EB0804A0FB02894C45C6464D4626
:10049C0015D312D056B1BAEB0E0364EB050404FA73
:1004AC0007F7CB401F43CC40376074600021BDE898
:1004BC00F0871846F8E69046E0E6C245EAD2B8EB7B
:1004CC00020E69EB03050138E4E72846D7E74046FE
:1004DC0091E78146BEE7014678E702383C4445E7A0
:1004EC00084608E7A8F102083D442BE7704700BF17
:1004FC0038B50E4A0E4B054618784FF47A73B3FB99
:10050C00F0F31068B0FBF3F000F09CF8044658B917
:10051C000F2D09D8024629464FF0FF3000F05EF847
:10052C00044B20461D6038BD012038BD0C00002056
:10053C00000000200400002008B50B4B1A6842F4A0
:10054C0000721A601A6842F480621A601A6842F4E7
:10055C0080721A60032000F02FF80020FFF7C8FF0C
:10056C0001F020FA002008BD003C0240034A044B75
:10057C0011681B780B441360704700BF2C000020DF
:10058C0000000020014B1868704700BF2C000020B1
:10059C0038B50446FFF7F6FF631C1CBF054B1B78F0
:1005AC00054618BFE418FFF7EDFF401B8442FAD84C
:1005BC0038BD00BF00000020074AD36823F4E06375
:1005CC001B041B0C43F0BF63000243F4003300F424
:1005DC00E0600343D360704700ED00E0174B30B58B
:1005EC00DC68C4F30224C4F10703251D042B28BFC7
:1005FC000423062D4FF0010505FA03F303F1FF3335
:10060C008CBF033C00241940A14005FA04F4013CC2
:10061C002240002842EA01024FEA0212ADBF00F16B
:10062C00604000F00F00064B00F56140B5BFD2B240
:10063C00D2B21A5480F8002330BD00BF00ED00E0A8
:10064C0014ED00E00138B0F1807F0AD2064B074A66
:10065C005860F02182F823100020072298601A605D
:10066C0070470120704700BF10E000E000ED00E093
:10067C0070B5044629B14FF40063C3604FF4804356
:10068C008360E3692268E0681568002BA36843EA7D
:10069C000003304843F4007300EA05000CBF4FF42C
:1006AC008061002103430B43136001201568FFF7A1
:1006BC006FFF236840221D6001205A605D68FFF7C0
:1006CC0067FF23685D6000259D60DD609A6922F0FC
:1006DC00BE021204120C42F080029A6101209E6943
:1006EC00FFF756FF236801209E61DD61DD69FFF78E
:1006FC004FFF2268184BD56141F218050120515962
:10070C000B4043F0087343F0040353515659FFF761
:10071C003FFF2368114A5E5103F5805301201A6094
:10072C001D68FFF735FF226802F580531D60A36931
:10073C00012B07D141F21C01535843F4803343F091
:10074C00400353506369064A998811601A68054B37
:10075C001A6070BD0F8120FF233FDEF88020C1029C
:10076C004080024044800240F8B590F84430822B1F
:10077C000546164630D00268822380F8443013694F
:10078C00890101F4F86403F01C012143048AE4029A
:10079C00A4B20C4344F001041461FFF7F3FE0746C6
:1007AC0014F0010007D12B685B699BB23360012305
:1007BC0085F84430F8BDFFF7E5FEC01BB0F5803F6F
:1007CC0007D3012385F84430002385F845300320F6
:1007DC00F8BD2B681C69E3E70220F8BD90F84430A3
:1007EC00422B70B505462ED0422380F84430036866
:1007FC008C01186904F4F86444F0030400F01C0044
:10080C0020432C8AE402A4B2044392B25A611C61C4
:10081C00FFF7B8FE064614F0010003D1012385F85A
:10082C00443070BDFFF7AEFE801BB0F5803F07D3A0
:10083C00012385F84430002385F84530032070BD32
:10084C002B681C69E7E7022070BD0000F7B5002398
:10085C0000930446002800F0DE8090F8443003F04A
:10086C00FF021BB980F8452001F0B8F80023019372
:10087C006A4B5A6C42F480425A645B6C03F48043BA
:10088C000193019B664B5A6822F400025A605A6825
:10089C00216A0A435A60236803F580531A6842F0B0
:1008AC0001021A60FFF76EFE0546236803F58052BD
:1008BC001268D0071DD41D6900F0BAFC594B5A4A76
:1008CC000344934225F01C0522D845F00805236803
:1008DC004FF400421D6100212046FFF77FFF0546C3
:1008EC0068B3012120460125FFF7C2FE84F844506D
:1008FC000BE0FFF747FE401BB0F5FA7FD5D9032577
:10090C00002384F8445084F84530284603B0F0BDE9
:10091C00464B474A0344934202D845F00C05D6E7B0
:10092C00444B454A03449342D1D9444B444A034473
:10093C00934294BF45F0040545F01005C7E7FF202E
:10094C00FFF726FE6368002B53D0FFF71BFE41F226
:10095C00883706466A4601212046FFF705FFFFF758
:10096C0011FE801BB8420BD901212046FFF780FEF7
:10097C00012384F84430002384F845300325C4E770
:10098C00009B5907E6D54FF4805200212046FFF713
:10099C0025FF0028A5D1FFF7F5FD41F28837064663
:1009AC006A4601212046FFF7DFFEFFF7EBFD801BB7
:1009BC00B842D9D8009B9A06F2D56A461F21204628
:1009CC00FFF7D2FE00288CD1009B13F0100218BF49
:1009DC004FF400625B074CBF00234FF48043E2608E
:1009EC00A36000212046FFF743FE012384F8443026
:1009FC008BE7A368E2685B0843EAD20292B229460D
:100A0C002046FFF7EBFE00287FF46BAF40F6FF703B
:100A1C00FFF7BEFDE5E7012577E700BF0038024090
:100A2C000038014000D3CEFEBFE1E40040F1E9FD07
:100A3C003F787D0100796CFCFF596202001F0AFAB5
:100A4C007FF0FA022DE9F04F85B00B68DFF8C48116
:100A5C006E4ADFF8C491019300230124019D9C4050
:100A6C002540AC4240F0B8804C6824F0100C0CF1DE
:100A7C00FF36012E4FEA430E12D88768032606FA7A
:100A8C000EF627EA0607CE6806FA0EF63E43866097
:100A9C004768C4F3001627EA05079E403E434660AC
:100AAC000326C76806FA0EF6F64307EA060A8F68AD
:100ABC0007FA0EF747EA0A07BCF1020FC76016D116
:100ACC004FEAD30A00EB8A0A03F0070BDAF820701E
:100ADC004FEA8B0B4FF00F0C0CFA0BFC27EA0C0CAB
:100AEC000F6907FA0BF747EA0C07CAF8207007687A
:100AFC003E4004F0030707FA0EFE4EEA06060660B7
:100B0C00E60069D54FF0000BCDF80CB0D8F8447066
:100B1C003F4E47F48047C8F84470D8F8447007F447
:100B2C0080470397039F23F0030707F1804707F5DE
:100B3C009C3703F0030CD7F808A04FEA8C0C4FF04D
:100B4C000F0E0EFA0CFEB0422AEA0E0E4BD006F532
:100B5C008066B04249D006F58066B04247D006F5B3
:100B6C008066B04245D006F58066B04243D0484519
:100B7C0043D006F50066B04241D006F58066B0421F
:100B8C003FD006F58066B0423DD006F58066B04297
:100B9C0014BF0A26092606FA0CF646EA0E06BE60B3
:100BAC001668EF4314F4803F0CBF3E402E43166092
:100BBC00566814F4003F0CBF3E402E4356609668B6
:100BCC0014F4801F0CBF3E402E439660D668A402DE
:100BDC0054BF3E402E43D6600133102B7FF43DAF03
:100BEC0005B0BDE8F08F5E46D5E70126D3E70226B7
:100BFC00D1E70326CFE70426CDE70526CBE706266B
:100C0C00C9E70726C7E70826C5E700BF003C014037
:100C1C0000000240003802400014024003691942EF
:100C2C0014BF0120002070470AB18161704709048C
:100C3C00FBE7436931EA030308BF0904816170478C
:100C4C00F0B504468BB060B390F8BD33056803F083
:100C5C00FF021BB980F8BC2300F084FF032384F847
:100C6C00BD33EB6B254613F4807355F8100B08BF9E
:100C7C00236100F0F7FB0FCD6E460FC60FCD0FC6EC
:100C8C0095E8030086E803002546271D97E80E002B
:100C9C0055F8100B00F0A6FB064620B1022384F891
:100CAC00BD33012550E00146206800F0E1FB3046E1
:100CBC00D4F804E01C264FF0010C0146C2B2964554
:100CCC0000F101001CD800231C261946D8B2864519
:100CDC0003F1010322D80FCD6E460FC60FCD0FC600
:100CEC0095E8030086E8030097E80E00206800F002
:100CFC0001FC0123054600B3022284F8BD23D0E792
:100D0C0006FB024383F83DC083F83C20A3F8422045
:100D1C0083F83F10596499641965CFE706FB0042CC
:100D2C0082F8FD1182F8FC0182F8FF11C2F804125E
:100D3C00C2F80812C2F81012C8E784F8380084F818
:100D4C00BD33206800F090FC28460BB0F0BD0000CD
:100D5C002DE9F341044608B901203FE00368DD07A3
:100D6C0010D4236898075AD423681A0700F19C8082
:100D7C0023685B0700F1BA80A069002840F01B8152
:100D8C0000202BE0A44B9A6802F00C02042A07D036
:100D9C009A6802F00C02082A0AD15B68590207D53E
:100DAC009D4B1B689A03DCD56368002BD9D1D3E724
:100DBC006368994DB3F5803F13D12B6843F48033AE
:100DCC002B60FFF7DFFB944D06462B689B03C8D4C2
:100DDC00FFF7D8FB801B6428F7D9032002B0BDE8CD
:100DEC00F081B3F5A02F04D12B6843F480232B6042
:100DFC00E3E72A6822F480322A602A6822F48022EF
:100E0C002A60002BDDD1FFF7BDFB06462B689F0344
:100E1C00A7D5FFF7B7FB801B6428F7D9DDE77E4B1E
:100E2C009A6812F00C0F07D09A6802F00C02082A8C
:100E3C0011D15B685E020ED4774B1A68950702D508
:100E4C00E268012A88D11A68216922F0F80242EA84
:100E5C00C1021A6088E7E268704BB2B101221A60D5
:100E6C00FFF790FB6C4D06462B68980707D52B684F
:100E7C00226923F0F80343EAC2032B6074E7FFF7FF
:100E8C0081FB801B0228EFD9A7E71A60FFF77AFBDA
:100E9C00614D06462B6899077FF566AFFFF772FB2D
:100EAC00801B0228F6D998E762695D4B7AB1012262
:100EBC001A60FFF767FB584D06466B6F9F073FF5AF
:100ECC0057AFFFF75FFB801B0228F6D985E71A6046
:100EDC00FFF758FB504D06466B6F98077FF548AFF0
:100EEC00FFF750FB801B0228F6D976E74A4B1A6CA9
:100EFC0012F0805228D101921A6C42F080521A647E
:100F0C001B6C03F080530193019B0126454D2B680C
:100F1C00D9051BD5A368404D012B27D12B6F43F06E
:100F2C0001032B67FFF72EFB3B4D074641F2883838
:100F3C002B6F9B0739D5002E3FF41EAF364A136C2E
:100F4C0023F08053136417E70026DFE72B6843F484
:100F5C0080732B60FFF716FB07462B68DA05D9D494
:100F6C00FFF710FBC01B0228F7D936E7052B04D17D
:100F7C002B6F43F004032B67D0E72A6F22F001029A
:100F8C002A672A6F22F004022A67002BCAD1FFF7C6
:100F9C00F9FA41F2883807462B6F9807CBD5FFF743
:100FAC00F1FAC01B4045F7D917E7FFF7EBFAC01B66
:100FBC004045BDD911E7184DAB6803F00C03082B65
:100FCC0047D0194E00230228336035D1FFF7DAFAE7
:100FDC0007462B68990129D4226AE3691343626A94
:100FEC0043EA8213E26A43EA0263A26A0A4C520899
:100FFC00013A43EA02436B6001233360FFF7C2FA04
:10100C00054623689A013FF5BBAEFFF7BBFA401BC0
:10101C000228F6D9E1E600BF003802400000474242
:10102C00800E47420070004060004742FFF7AAFA6A
:10103C00C01B0228CDD9D0E6FFF7A4FA04462B68D2
:10104C009B017FF59DAEFFF79DFA001B0228F6D998
:10105C00C3E601283FF4C2AE6868E36900F480027D
:10106C009A427FF479AE226A00F03F0393427FF4F8
:10107C0073AE626A47F6C073034093427FF46CAE62
:10108C00A26A00F4403393427FF466AEE36A00F048
:10109C007060C01A18BF0120A0E600BF134908B544
:1010AC008B6803F00C03042B03D0082B03D01048DF
:1010BC0008BD104808BD4A684B68496813F48003A2
:1010CC0014BF0C480A48C1F3881118BF002302F062
:1010DC003F02A1FB0001FFF783F8044B5B68C3F3ED
:1010EC00014301335B00B0FBF3F008BD0038024054
:1010FC000024F40000127A002DE9F0410D4604465C
:10110C0010B90120BDE8F081444B1A6802F00F02BF
:10111C008A4229D321688F072ED4C80741D43F4B6C
:10112C001A6802F00F02954267D3226851076DD4FA
:10113C00130707D53A4A2169936823F4604343EABD
:10114C00C1039360FFF7AAFF354B364A9B68C3F384
:10115C000313D35CD840344B1860344B1868FFF73A
:10116C00C7F90020BDE8F081CAB21A701B6803F001
:10117C000F039942C5D1CDE7294B11F0040F1EBFC7
:10118C009A6842F4E0529A600E0742BF9A6842F4A1
:10119C0060429A609A68A06822F0F00202439A605A
:1011AC00BBE762681E4B012A1DD11B6813F4003F7C
:1011BC00A7D01B4EB36823F003031343B360FFF7B0
:1011CC00E1F941F288380746B368626803F00C0312
:1011DC00B3EB820FA3D0FFF7D5F9C01B4045F3D971
:1011EC000320BDE8F081911E01291B6802D813F081
:1011FC00007FDDE713F0020FDAE7EAB21A701B6822
:10120C0003F00F039D427FF47CAF8EE70449E06846
:10121C008B6823F4E05303438B6089E7003C024066
:10122C0000380240E81C00080C00002004000020DC
:10123C00014B1868704700BF0C000020044B054A96
:10124C009B68C3F38223D35C034A1068D840704771
:10125C0000380240F81C00080C000020044B054A22
:10126C009B68C3F34233D35C034A1068D840704781
:10127C0000380240F81C00080C00002038B5036848
:10128C00C1681A69044622F440520A431A6125695E
:10129C00A268D968C0692A43656921F416412A43BA
:1012AC0021F00C0102430A43DA605A69A16922F465
:1012BC0040720A43B0F5004F5A61254A29D1934236
:1012CC0003D002F58062934220D1FFF7C7FF62681A
:1012DC00256892184FF000034FF019015B41A0FBF9
:1012EC000101FEF77DFF6421B0FBF1F401FB140357
:1012FC00DB003233B3FBF1F303F007025B0002EBCC
:10130C00041203F4F8731344AB6038BDFFF796FF77
:10131C00DDE7934202D00F4A934216D1FFF79EFFAE
:10132C006368256819219A00A0FB01019B0FFEF749
:10133C0057FF6422B0FBF2F102FB11031B013233A5
:10134C00B3FBF2F303EB0113DEE7FFF777FFE7E7FD
:10135C00001001400014014010B5044640B390F851
:10136C00393003F0FF021BB980F8382000F0C4FBC1
:10137C002268242384F83930D36823F40053D360D3
:10138C002046FFF77BFF23681A6922F490421A610A
:10139C005A6922F02A025A61DA6842F40052DA6081
:1013AC0000202023E06384F8393084F83A3010BDF3
:1013BC00012010BD0A4B013B01D10320704702698B
:1013CC00002AF8DA0369064A43F001030361013A83
:1013DC00F3D0036913F00103F9D11846704700BF2D
:1013EC00410D030084B038B505AD85E80E000A9BAD
:1013FC00012B044625D1836B23F480338363C368AC
:10140C0023F4840323F04003C360C36823F4401324
:10141C00C360119B012B02BFC36843F48013C360EC
:10142C00FFF7C8FF089B012B07D1A36843F0060305
:10143C00A360A36843F02003A360BDE8384004B068
:10144C007047C36843F04003C360FFF7B3FF0E9BC4
:10145C0023B9A36B43F48033A363E3E7A36B23F4B7
:10146C008033F9E7836823F0010383600020704721
:10147C0008B5C368012923F0C043C36008D1C36811
:10148C0043F00053C3603220FFF782F8002008BD00
:10149C0019B9C36843F08043F4E7012008BD00008C
:1014AC00890141F02001064A0161013A05D0036926
:1014BC0013F02003F9D1184670470320704700BF82
:1014CC00410D03001023064A0361013A05D003695C
:1014DC0013F01003F9D1184670470320704700BF72
:1014EC00410D0300D0F800381943C0F80018002053
:1014FC007047000084B02DE9F843044609A880E841
:10150C000E000023139D0F46194603F1400204EB15
:10151C00820201330F2B5160F7D104F50066002DC8
:10152C006CD1736843F002037360A36B43F4001334
:10153C00A363A36B23F40023A363A36B23F4802383
:10154C00A3630023C4F8003ED4F80038C4F8003874
:10155C000E9B012B5CD10B99002957D12046FFF72C
:10156C00C1FF10212046FFF79BFF01462046FFF7E5
:10157C00A9FF00284ED1081C18BF0120002333619D
:10158C0004F5106273611946F3614FF0904E4FF001
:10159C00006C4FF67F38BB423ED1002104F530621F
:1015AC000F464FF0904E4FF0006C4FF67F388B4249
:1015BC0045D1336923F4807333610023A3616FF049
:1015CC00804363610C9B1BB9A36943F01003A361B7
:1015DC00A269244B1343A3610F9B1BB1A36943F076
:1015EC000803A361012D01BFA36943F0804343F0BD
:1015FC000403A361BDE8F84304B07047A36B23F464
:10160C000013A363A36B43F4002399E71946A5E7E2
:10161C000321A3E70120B1E7D2F80090B9F1000F44
:10162C000BDA3BB9C2F800C011610133C2F8088073
:10163C002032B0E7C2F800E0F6E71160F4E7D2F828
:10164C000090B9F1000F0BDA39B9C2F800C017617C
:10165C000131C2F808802032A9E7C2F800E0F6E7B1
:10166C001760F4E700383C8008B5D0F8043843F034
:10167C000203C0F804380320FEF78AFF002008BDDF
:10168C0030B595B03022002108A800F013FB0021E2
:10169C00142203A800F00EFB00241D4B01941A6CBD
:1016AC0042F080521A641B6C03F080530193019B2F
:1016BC00184B02941A6842F440421A601B6803F4F7
:1016CC0040430293029B012308934FF4A0230993F8
:1016DC004FF480030F9304231093A8230225119336
:1016EC0008A8072313930E951295FFF731FB0F23D0
:1016FC0003934FF4A053069305214FF4805303A892
:10170C00049505940793FFF7F7FC15B030BD00BFA7
:10171C00003802400070004008B54FF400510848F2
:10172C00FFF77CFA20B1074B1A6832B901221A6014
:10173C006420BDE80840FEF72BBF0022F7E700BF8E
:10174C000008024008000020F0B58DB0FEF7F4FE52
:10175C00FFF796FF1422002107A800F0ABFA002433
:10176C00854B01941A6B8548854F42F004021A632D
:10177C001A6B02F004020192019A02941A6B42F065
:10178C0080021A631A6B02F080020292029A03948E
:10179C001A6B42F001021A631A6B02F001020392F7
:1017AC00039A04941A6B42F002021A631A6B02F049
:1017BC0002020492049A05941A6B42F008021A630E
:1017CC001A6B02F008020592059A06941A6B42F005
:1017DC0040021A631B6B03F040030693224644F24B
:1017EC008101069BFFF720FA224640216548FFF74E
:1017FC001BFA4FF40053079307A9634B63480893F4
:10180C0001250994FFF71EF944F2810307A95B48EF
:10181C000793089509940A94FFF714F9402307A934
:10182C00584807938026089509940A94FFF70AF9FB
:10183C0007A95448079608940994FFF703F95448EC
:10184C00544B048280E8280043691C7043695E7025
:10185C0043694E4EE1229A704369DC7043691C71F6
:10186C0043695C714FF4000303628461C461FEF749
:10187C00EDFF4948494A84604FF4E13380E80C009D
:10188C000C234361C46004618461C461FFF764FD8F
:10189C0043484FF0A041042380E80A000223C561AD
:1018AC00C562C36004618361046244620463FFF730
:1018BC00C7F9324D4FF400513046FFF7AFF901280C
:1018CC0029D154B33C6874BB28460121FFF7B1F908
:1018DC00FFF722FF28460121FFF7ABF9FFF71CFFAA
:1018EC0028468021FFF7A5F9FFF716FF284680212F
:1018FC00FFF79FF9FFF710FF28464FF48041FFF7E1
:10190C0098F9FFF709FF4FF480412846FFF791F94A
:10191C00FFF702FFCEE7002CD4D04FF4FA60FEF7AD
:10192C0037FE0124C6E74FF480412846FFF781F9C2
:10193C00FFF7F2FE4FF480412846FFF77AF9FFF7E4
:10194C00EBFE80212846FFF774F9FFF7E5FE8021B6
:10195C002846FFF76EF9FFF7DFFE01212846FFF757
:10196C0068F9FFF7D9FE01212846FFF762F9002438
:10197C00FFF7D2FE9EE700BF003802400004024091
:10198C00080000200018024000001110000802405E
:10199C007804002000800240300000200048004005
:1019AC007000002082B00C4B002100915A6C42F464
:1019BC0080425A645A6C02F480420092009A01915F
:1019CC001A6C42F080521A641B6C03F08053019322
:1019DC00019B02B0704700BF00380240F0B50446CE
:1019EC008DB01422002107A800F064F922683D4B49
:1019FC009A4274D1A3F59043002400941A6B3A4890
:101A0C0042F000721A631A6B02F000720092009A94
:101A1C0001941A6B42F080621A631A6B02F08062B6
:101A2C000192019A02941A6B42F000621A631A6BCB
:101A3C0002F000620292029A03941A6B42F00402C2
:101A4C001A631A6B02F004020392039A04941A6B41
:101A5C0042F001021A631A6B02F001020492049A1A
:101A6C0005941A6B42F002021A631A6B02F002021E
:101A7C000592059A06941A6B42F040021A631B6B8E
:101A8C0003F040030693022703260B25069B0897B9
:101A9C00322307A907930A960B95FEF7D3FF8623EB
:101AAC0007A912480793089709940A960B95FEF715
:101ABC00C9FF4FF4005307A90D48079308970994E1
:101ACC000A960B95FEF7BEFF4FF4205307A9094861
:101ADC000793089709940A960B95FEF7B3FF0DB080
:101AEC00F0BD00BF00800240000802400000024030
:101AFC00000402400018024010B5044688B01422BD
:101B0C00002103A800F0D6F82268144B9A4223D186
:101B1C0003F5F833002101911A6C114842F480222C
:101B2C001A641A6C02F480220192019A02911A6BC7
:101B3C0042F008021A631B6B03F008030293029B2A
:101B4C004FF440730393022304930323069303A9D6
:101B5C0007230793FEF776FF08B010BD004800403E
:101B6C00000C024030B5044689B01422002103A8B1
:101B7C0000F0A0F82368B3F1A04F2FD1184C1948EE
:101B8C0000250195236B43F001032363236B03F0C2
:101B9C0001030193019B4FF4E85303930223049335
:101BAC000323069303A90A230793FEF74BFF4FF475
:101BBC00007303A90B48039304950595FEF742FFA8
:101BCC00636B43F0800363630295636C43F480435F
:101BDC006364636C03F480430293029B09B030BDD1
:101BEC0000380240000002407047FEE7FEE7FEE7C7
:101BFC00FEE7704770477047FEF7B8BC054BD3F84B
:101C0C00882042F47002C3F888204FF000629A607A
:101C1C00704700BF00ED00E0DFF834D0002103E096
:101C2C000C4B5B58435004310B480C4B42189A42F6
:101C3C00F6D30B4A02E0002342F8043B094B9A42CC
:101C4C00F9D3FFF7DBFF00F011F8FFF77DFD7047CC
:101C5C0000000320101D00080000002010000020D0
:101C6C0010000020C0040020FEE7000070B50D4EEF
:101C7C000D4CA41BA4100025A54209D10B4E0C4CF5
:101C8C0000F020F8A41BA4100025A54205D170BDBE
:101C9C0056F8253098470135EEE756F82530984729
:101CAC000135F2E7081D0008081D0008081D000892
:101CBC000C1D000802440346934200D1704703F800
:101CCC00011BF9E7F8B500BFF8BC08BC9E4670478D
:0C1CDC00F8B500BFF8BC08BC9E4670477D
:101CE80000000000000000000102030406070809C4
:081CF8000000000001020304DA
:081D00001CE5FF7F010000005B
:041D0800D1010008FD
:041D0C00AD0100081D
:101D10000100000010000000010000000024F40099
:0400000508001C25AE
:00000001FF
